:1007A8003F065B4F666D7D077F6F777C395E797199
:0C078000C1010215000002180000C100B9
:0E07B800438901758CFC758A66D2A9D28C2209
:03000B000206A842
:1006A800C0E0C0D0758CFC758A660516E516700228
:1006B8000515C3940AE5159400401C7515007516B8
:1006C80000300013D3E5199400E51894004008E5BC
:0C06D80019151970021518D0D0D0E032AE
:0607DD001207B8D2AF22A2
:1003B900AE18AF197C007D64120356AB07AA067C00
:1003C900037DE81203568F087C037DE8AF03AE0274
:1003D9001203567E007F64CFCDCFCECCCE1203560A
:1003E9008F097C007D64AF03AE021203567E007F45
:1003F9000ACFCDCFCECCCE1203568F0AAE02AF03B1
:100409007C007D0A1203568D0BE4F50CE50C146093
:100419000F1460111460132403701275A001800D6C
:1004290075A002800875A004800375A008740825CA
:100439000CF8E69007A893F4F5907F027E00120766
:0A04490060050CE50CC3940440C2EA
:010453002286
:1004EF00E4FF1207961207101207C67FE87E031269
:1004FF0007603001031206141204548F17E517B466
:10050F000707D201120614804CE5176406702412F7
:10051F0007DD1204548F171203B9E517640860F250
:10052F00AF177E007C037DE81203448E188F19D21B
:10053F00008022E4D39517501CE51794055016C27E
:10054F0001AF1712079630000CC200C2AFE4F518C6
:10055F00F5197590FF3000031203B9300011E5193A
:10056F004518700BFF120796C200C2AF7590FF7F40
:09057F000A7E001207600205016A
:070003000024486C90B4D802
:09078C00010F0004100000000040
:10071000D2A77F087E001207D2C2A77F507E0012A8
:1007200007D2D2A77F0E7E001207D220A7FD30A7E6
:08073000FD7F147E000207D2D8
:0206E4008F0D78
:1006E600E4F50EC2A7E50D1392A77F0A7E00120756
:1006F600D2D2A7E50DC313F50D7F057E001207D2F2
:09070600050EE50EC3940840DA6B
:01070F0022C7
:10073800E4F50EF50DC2A7E50EC313F50ED2A730EA
:10074800A703430E807F087E001207D2050DE50D32
:07075800C3940840E0AF0E5E
:01075F002277
:10079600EFD3940540027F05EF90000393F5808F19
:0207A6000F2220
:100660001207107FCC1206E47F441206E47F967EC8
:10067000001207601207107FCC1206E47FBE12063C
:10068000E41207388F0C120738EFFEE50CFFFDACC3
:1006900006EC12028AE4FBFA7980783D1201068F9B
:0706A000138E128D118C1066
:0106A7002230
:0C07C600120660AF13AE12AD11AC102291
:100614001207C68F0B8E0A8D098C08E4FFFE7DD865
:100624007C41AB0BAA0AA909A80812020C6002506B
:1006340004E4FF8023E4FFFE7DD87CC1AB0BAA0A4F
:10064400A909A8081200151202C38F14E514D39443
:0B065400054003751405AF1412079653
:01065F002278
:1004540020B0107F647E0012076020B00630B0FD2B
:100464007F072220B1107F647E0012076020B1064E
:1004740030B1FD7F002220B2107F647E001207603D
:1004840020B20630B2FD7F012220B3107F647E00CB
:1004940012076020B30630B3FD7F022220B4107F20
:1004A400647E0012076020B40630B4FD7F0322206E
:1004B400B5107F647E0012076020B50630B5FD7F5D
:1004C400042220B6107F647E0012076020B6063036
:1004D400B6FD7F052220B7107F647E0012076020DE
:0B04E400B70630B7FD7F06227F08221C
:10076000E4FDFCC3ED9FEC9E5015E4FBFA0BBB00CF
:0F077000010AEB64724A70F50DBD00010C80E4C4
:01077F002257
:0B07D200EF1FAC0670011E4C70F622F9
:10000E0002032FE86480F8E933E83360110460F0EE
:10001E00ED33EC337009E8FCE9FDEAFEEBFF220458
:10002E0060DED3EB9FEA9EE99DE8C2E78CF0C2F753
:10003E0095F0400CE8CCF8E9CDF9EACEFAEBCFFB1F
:10004E001202FA85D0F05804700320D5B3E804707C
:10005E00075002B2D502033992D5EC0460F7E4CC16
:10006E00C0E0C398F8603B94186008400DD0E0FBE8
:10007E00020311E4FBFAC9FC8028E830E406E4C967
:10008E00FBE4CAFCE830E305E4C9CACBFCE854073C
:10009E006010F8C3E913F9EA13FAEB13FBEC13FC47
:1000AE00D8F130F52FC3E49CFCEF9BFFEE9AFEEDEA
:1000BE0099FDD0E0FBEF4E4D4C701222DB03020394
:1000CE0036EC2CFCEF33FFEE33FEED33FDED30E777
:1000DE00EB020311EF2BFFEE3AFEED39FDD0E0FB04
:1000EE0050130BBB0003020339ED13FDEE13FEEFAD
:0800FE0013FFEC13FC020311D7
:10010600EC4D6011E8497017ED33EC3304600DE4F3
:10011600FCFFFEFD22E933E8330470F802032F12D8
:1001260002FA58046009E4CC2481500628500902DA
:100136000339284003020336C0E0EB4A7044B98015
:1001460006D0E0FB020325EF4E701CBD8008EBFFD6
:10015600EAFEE9FD80EBE98DF0A4FEE5F00201EF91
:10016600E9CDF9EAFEEBFFEF89F0A4FCE5F0CE89D4
:10017600F0A42EFFE435F0CD89F0A42DFEE435F091
:100186008067EF4E7005BD80D780C3EF8BF0A4ACBF
:10019600F0EE8BF0A42CFCE435F0F8EF8AF0A42CFA
:1001A600E5F038FCE433CB8DF0A42CFCE5F03BF80D
:1001B600EE8AF0A42CFCE5F038F8E433CF89F0A4FD
:1001C6002CFCE5F038CF3400CE89F0A42FFFE5F003
:1001D6003EFEE433C98DF0A42EFEE5F039CD8AF05B
:1001E600A42FFFE5F03EFEE43DFD33D0E0FB5007D3
:1001F6000BBB000F020339EC2CFCEF33FFEE33FE92
:06020600ED33FD020311BF
:10020C0074F8CC6480CCC86480C8F58204604FC399
:10021C00EB9FF5F0EA9E42F0E99D42F0E89C45F038
:10022C00603C501DE5825FFFE582D313CB5BCBF4C2
:10023C002B5582FB50280ABA002409B900200880EB
:10024C001DE5825BFBE582D313CF5FCFF4C3132F85
:10025C005582FF50090EBE00050DBD00010CC3EB0D
:10026C009FF5F0EA9E42F0E99D42F0E89C45F06073
:09027C0007CC4820E701B3EC2295
:1002850075F020800E75F010800575F0087D007EF4
:10029500007F003392D530D5031203ABEC33401009
:1002A500EF33FFEE33FEED33FDEC33FCD5F0ED22FD
:0E02B500E5F0247EA2D513CC92E7CDCEFF2239
:1002C300EDD2E7CD33EC3392D524814006E4FFFE33
:1002D300FDFC22FCE4CFCECDCC24E0501174FF8092
:1002E300EDC3CC13CCCD13CDCE13CECF13CF04702F
:0702F300F030D5DE0203AB81
:1002FA00E9D2E7C933E833F892D5EDD2E7CD33EC4A
:07030A0033FC5002B2D522C2
:10031100EC30E7100FBF000C0EBE00080DBD00044D
:100321000BEB6014A2D5EB13FCED92E7FD2274FFF9
:10033100FCFDFEFF22E480F8A2D574FF13FC7D8052
:03034100E480EF66
:030000000205886E
:0C058800787FE4F6D8FD7581200205CFD5
:10034400EF8DF0A4A8F0CF8CF0A428CE8DF0A42ECD
:02035400FE2287
:10035600BC000BBE0029EF8DF084FFADF022E4CC8B
:10036600F875F008EF2FFFEE33FEEC33FCEE9DEC54
:10037600984005FCEE9DFE0FD5F0E9E4CEFD22ED9A
:10038600F8F5F0EE8420D21CFEADF075F008EF2FE4
:10039600FFED33FD4007985006D5F0F222C398FDD5
:0503A6000FD5F0EA2272
:0E03AB00C3E49FFFE49EFEE49DFDE49CFC2263
:100594000204EFE493A3F8E493A34003F68001F28A
:1005A40008DFF48029E493A3F85407240CC8C33368
:1005B400C4540F4420C8834004F456800146F6DF37
:1005C400E4800B0102040810204080900780E47E40
:1005D400019360BCA3FF543F30E509541FFEE4932C
:1005E400A360010ECF54C025E060A840B8E493A3F3
:1005F400FAE493A3F8E493A3C8C582C8CAC583CA1E
:10060400F0A3C8C582C8CAC583CADFE9DEE780BED5
:010795000063
:00000001FF
